{"contracts/CredentialRegistry.sol":{"CredentialRegistry":{"abi":[{"inputs":[{"internalType":"address","name":"issuerRegistryAddr","type":"address"}],"stateMutability":"nonpayable","type":"constructor"},{"inputs":[],"name":"AlreadyAnchored","type":"error"},{"inputs":[],"name":"AlreadyRevoked","type":"error"},{"inputs":[],"name":"NotAnchored","type":"error"},{"inputs":[],"name":"NotAuthorizedIssuer","type":"error"},{"inputs":[],"name":"OnlyOriginalIssuer","type":"error"},{"anonymous":false,"inputs":[{"indexed":true,"internalType":"bytes32","name":"vcHash","type":"bytes32"},{"indexed":true,"internalType":"address","name":"issuer","type":"address"},{"indexed":false,"internalType":"uint256","name":"timestamp","type":"uint256"}],"name":"CredentialAnchored","type":"event"},{"anonymous":false,"inputs":[{"indexed":true,"internalType":"bytes32","name":"vcHash","type":"bytes32"},{"indexed":true,"internalType":"address","name":"issuer","type":"address"},{"indexed":false,"internalType":"uint256","name":"timestamp","type":"uint256"}],"name":"CredentialRevoked","type":"event"},{"inputs":[{"internalType":"bytes32","name":"vcHash","type":"bytes32"}],"name":"anchorCredential","outputs":[],"stateMutability":"nonpayable","type":"function"},{"inputs":[{"internalType":"bytes32","name":"vcHash","type":"bytes32"}],"name":"getRecord","outputs":[{"internalType":"address","name":"issuer","type":"address"},{"internalType":"uint64","name":"issuedAt","type":"uint64"},{"internalType":"bool","name":"revoked","type":"bool"},{"internalType":"uint64","name":"revokedAt","type":"uint64"}],"stateMutability":"view","type":"function"},{"inputs":[{"internalType":"bytes32","name":"vcHash","type":"bytes32"}],"name":"isRevoked","outputs":[{"internalType":"bool","name":"","type":"bool"}],"stateMutability":"view","type":"function"},{"inputs":[],"name":"issuerRegistry","outputs":[{"internalType":"contract IIssuerRegistry","name":"","type":"address"}],"stateMutability":"view","type":"function"},{"inputs":[{"internalType":"bytes32","name":"vcHash","type":"bytes32"}],"name":"revokeCredential","outputs":[],"stateMutability":"nonpayable","type":"function"}],"evm":{"bytecode":{"linkReferences":{},"object":"60a060405234801561001057600080fd5b5060405161062138038061062183398101604081905261002f9161009a565b6001600160a01b0381166100895760405162461bcd60e51b815260206004820152601760248201527f6973737565725265676973747279207265717569726564000000000000000000604482015260640160405180910390fd5b6001600160a01b03166080526100ca565b6000602082840312156100ac57600080fd5b81516001600160a01b03811681146100c357600080fd5b9392505050565b60805161052e6100f360003960008181610166015281816101c80152610324015261052e6000f3fe608060405234801561001057600080fd5b50600436106100575760003560e01c806312d491971461005c578063213681cd146100715780634294857f146101275780638bfc185114610161578063ca6eec78146101a0575b600080fd5b61006f61006a3660046104b6565b6101b3565b005b6100e861007f3660046104b6565b60009081526020818152604091829020825160808101845281546001600160a01b038116808352600160a01b820467ffffffffffffffff908116958401869052600160e01b90920460ff1615159583018690526001909301541660609091018190529093919291565b604080516001600160a01b03909516855267ffffffffffffffff9384166020860152911515918401919091521660608201526080015b60405180910390f35b6101516101353660046104b6565b600090815260208190526040902054600160e01b900460ff1690565b604051901515815260200161011e565b6101887f000000000000000000000000000000000000000000000000000000000000000081565b6040516001600160a01b03909116815260200161011e565b61006f6101ae3660046104b6565b61030f565b60405163877b9a6760e01b81523360048201527f00000000000000000000000000000000000000000000000000000000000000006001600160a01b03169063877b9a6790602401602060405180830381865afa158015610217573d6000803e3d6000fd5b505050506040513d601f19601f8201168201806040525081019061023b91906104cf565b610258576040516306aaf4f160e31b815260040160405180910390fd5b60008181526020819052604090208054600160a01b900467ffffffffffffffff16156102975760405163a0094ce360e01b815260040160405180910390fd5b805467ffffffffffffffff42908116600160a01b0267ffffffffffffffff60a01b19339081166001600160e01b03199094169390931717835560405184917f6175b04d68794f2857f394688801d761e647f3149b406ebf2df387db911585149161030391815260200190565b60405180910390a35050565b60405163877b9a6760e01b81523360048201527f00000000000000000000000000000000000000000000000000000000000000006001600160a01b03169063877b9a6790602401602060405180830381865afa158015610373573d6000803e3d6000fd5b505050506040513d601f19601f8201168201806040525081019061039791906104cf565b6103b4576040516306aaf4f160e31b815260040160405180910390fd5b600081815260208190526040812080549091600160a01b90910467ffffffffffffffff1690036103f757604051630c4ba7e560e01b815260040160405180910390fd5b8054600160e01b900460ff16156104215760405163905e710760e01b815260040160405180910390fd5b80546001600160a01b0316331461044b57604051633c7b0caf60e01b815260040160405180910390fd5b8054600160e01b60ff60e01b1990911617815560018101805467ffffffffffffffff19164267ffffffffffffffff811691909117909155604051908152339083907f80d4746828447d65eceb938c7f9d85fbeb232fe7819d5209ed452b3940f8904b90602001610303565b6000602082840312156104c857600080fd5b5035919050565b6000602082840312156104e157600080fd5b815180151581146104f157600080fd5b939250505056fea2646970667358221220a853f8f4394d219b1660c04ba58f448f046759ac51016e5f0485df065ca9405364736f6c634300081e0033","opcodes":"PUSH1 0xA0 PUSH1 0x40 MSTORE CALLVALUE DUP1 ISZERO PUSH2 0x10 JUMPI PUSH1 0x0 DUP1 REVERT JUMPDEST POP PUSH1 0x40 MLOAD PUSH2 0x621 CODESIZE SUB DUP1 PUSH2 0x621 DUP4 CODECOPY DUP2 ADD PUSH1 0x40 DUP2 SWAP1 MSTORE PUSH2 0x2F SWAP2 PUSH2 0x9A JUMP JUMPDEST PUSH1 0x1 PUSH1 0x1 PUSH1 0xA0 SHL SUB DUP2 AND PUSH2 0x89 JUMPI PUSH1 0x40 MLOAD PUSH3 0x461BCD PUSH1 0xE5 SHL DUP2 MSTORE PUSH1 0x20 PUSH1 0x4 DUP3 ADD MSTORE PUSH1 0x17 PUSH1 0x24 DUP3 ADD MSTORE PUSH32 0x6973737565725265676973747279207265717569726564000000000000000000 PUSH1 0x44 DUP3 ADD MSTORE PUSH1 0x64 ADD PUSH1 0x40 MLOAD DUP1 SWAP2 SUB SWAP1 REVERT JUMPDEST PUSH1 0x1 PUSH1 0x1 PUSH1 0xA0 SHL SUB AND PUSH1 0x80 MSTORE PUSH2 0xCA JUMP JUMPDEST PUSH1 0x0 PUSH1 0x20 DUP3 DUP5 SUB SLT ISZERO PUSH2 0xAC JUMPI PUSH1 0x0 DUP1 REVERT JUMPDEST DUP2 MLOAD PUSH1 0x1 PUSH1 0x1 PUSH1 0xA0 SHL SUB DUP2 AND DUP2 EQ PUSH2 0xC3 JUMPI PUSH1 0x0 DUP1 REVERT JUMPDEST SWAP4 SWAP3 POP POP POP JUMP JUMPDEST PUSH1 0x80 MLOAD PUSH2 0x52E PUSH2 0xF3 PUSH1 0x0 CODECOPY PUSH1 0x0 DUP2 DUP2 PUSH2 0x166 ADD MSTORE DUP2 DUP2 PUSH2 0x1C8 ADD MSTORE PUSH2 0x324 ADD MSTORE PUSH2 0x52E PUSH1 0x0 RETURN INVALID PUSH1 0x80 PUSH1 0x40 MSTORE CALLVALUE DUP1 ISZERO PUSH2 0x10 JUMPI PUSH1 0x0 DUP1 REVERT JUMPDEST POP PUSH1 0x4 CALLDATASIZE LT PUSH2 0x57 JUMPI PUSH1 0x0 CALLDATALOAD PUSH1 0xE0 SHR DUP1 PUSH4 0x12D49197 EQ PUSH2 0x5C JUMPI DUP1 PUSH4 0x213681CD EQ PUSH2 0x71 JUMPI DUP1 PUSH4 0x4294857F EQ PUSH2 0x127 JUMPI DUP1 PUSH4 0x8BFC1851 EQ PUSH2 0x161 JUMPI DUP1 PUSH4 0xCA6EEC78 EQ PUSH2 0x1A0 JUMPI JUMPDEST PUSH1 0x0 DUP1 REVERT JUMPDEST PUSH2 0x6F PUSH2 0x6A CALLDATASIZE PUSH1 0x4 PUSH2 0x4B6 JUMP JUMPDEST PUSH2 0x1B3 JUMP JUMPDEST STOP JUMPDEST PUSH2 0xE8 PUSH2 0x7F CALLDATASIZE PUSH1 0x4 PUSH2 0x4B6 JUMP JUMPDEST PUSH1 0x0 SWAP1 DUP2 MSTORE PUSH1 0x20 DUP2 DUP2 MSTORE PUSH1 0x40 SWAP2 DUP3 SWAP1 KECCAK256 DUP3 MLOAD PUSH1 0x80 DUP2 ADD DUP5 MSTORE DUP2 SLOAD PUSH1 0x1 PUSH1 0x1 PUSH1 0xA0 SHL SUB DUP2 AND DUP1 DUP4 MSTORE PUSH1 0x1 PUSH1 0xA0 SHL DUP3 DIV PUSH8 0xFFFFFFFFFFFFFFFF SWAP1 DUP2 AND SWAP6 DUP5 ADD DUP7 SWAP1 MSTORE PUSH1 0x1 PUSH1 0xE0 SHL SWAP1 SWAP3 DIV PUSH1 0xFF AND ISZERO ISZERO SWAP6 DUP4 ADD DUP7 SWAP1 MSTORE PUSH1 0x1 SWAP1 SWAP4 ADD SLOAD AND PUSH1 0x60 SWAP1 SWAP2 ADD DUP2 SWAP1 MSTORE SWAP1 SWAP4 SWAP2 SWAP3 SWAP2 JUMP JUMPDEST PUSH1 0x40 DUP1 MLOAD PUSH1 0x1 PUSH1 0x1 PUSH1 0xA0 SHL SUB SWAP1 SWAP6 AND DUP6 MSTORE PUSH8 0xFFFFFFFFFFFFFFFF SWAP4 DUP5 AND PUSH1 0x20 DUP7 ADD MSTORE SWAP2 ISZERO ISZERO SWAP2 DUP5 ADD SWAP2 SWAP1 SWAP2 MSTORE AND PUSH1 0x60 DUP3 ADD MSTORE PUSH1 0x80 ADD JUMPDEST PUSH1 0x40 MLOAD DUP1 SWAP2 SUB SWAP1 RETURN JUMPDEST PUSH2 0x151 PUSH2 0x135 CALLDATASIZE PUSH1 0x4 PUSH2 0x4B6 JUMP JUMPDEST PUSH1 0x0 SWAP1 DUP2 MSTORE PUSH1 0x20 DUP2 SWAP1 MSTORE PUSH1 0x40 SWAP1 KECCAK256 SLOAD PUSH1 0x1 PUSH1 0xE0 SHL SWAP1 DIV PUSH1 0xFF AND SWAP1 JUMP JUMPDEST PUSH1 0x40 MLOAD SWAP1 ISZERO ISZERO DUP2 MSTORE PUSH1 0x20 ADD PUSH2 0x11E JUMP JUMPDEST PUSH2 0x188 PUSH32 0x0 DUP2 JUMP JUMPDEST PUSH1 0x40 MLOAD PUSH1 0x1 PUSH1 0x1 PUSH1 0xA0 SHL SUB SWAP1 SWAP2 AND DUP2 MSTORE PUSH1 0x20 ADD PUSH2 0x11E JUMP JUMPDEST PUSH2 0x6F PUSH2 0x1AE CALLDATASIZE PUSH1 0x4 PUSH2 0x4B6 JUMP JUMPDEST PUSH2 0x30F JUMP JUMPDEST PUSH1 0x40 MLOAD PUSH4 0x877B9A67 PUSH1 0xE0 SHL DUP2 MSTORE CALLER PUSH1 0x4 DUP3 ADD MSTORE PUSH32 0x0 PUSH1 0x1 PUSH1 0x1 PUSH1 0xA0 SHL SUB AND SWAP1 PUSH4 0x877B9A67 SWAP1 PUSH1 0x24 ADD PUSH1 0x20 PUSH1 0x40 MLOAD DUP1 DUP4 SUB DUP2 DUP7 GAS STATICCALL ISZERO DUP1 ISZERO PUSH2 0x217 JUMPI RETURNDATASIZE PUSH1 0x0 DUP1 RETURNDATACOPY RETURNDATASIZE PUSH1 0x0 REVERT JUMPDEST POP POP POP POP PUSH1 0x40 MLOAD RETURNDATASIZE PUSH1 0x1F NOT PUSH1 0x1F DUP3 ADD AND DUP3 ADD DUP1 PUSH1 0x40 MSTORE POP DUP2 ADD SWAP1 PUSH2 0x23B SWAP2 SWAP1 PUSH2 0x4CF JUMP JUMPDEST PUSH2 0x258 JUMPI PUSH1 0x40 MLOAD PUSH4 0x6AAF4F1 PUSH1 0xE3 SHL DUP2 MSTORE PUSH1 0x4 ADD PUSH1 0x40 MLOAD DUP1 SWAP2 SUB SWAP1 REVERT JUMPDEST PUSH1 0x0 DUP2 DUP2 MSTORE PUSH1 0x20 DUP2 SWAP1 MSTORE PUSH1 0x40 SWAP1 KECCAK256 DUP1 SLOAD PUSH1 0x1 PUSH1 0xA0 SHL SWAP1 DIV PUSH8 0xFFFFFFFFFFFFFFFF AND ISZERO PUSH2 0x297 JUMPI PUSH1 0x40 MLOAD PUSH4 0xA0094CE3 PUSH1 0xE0 SHL DUP2 MSTORE PUSH1 0x4 ADD PUSH1 0x40 MLOAD DUP1 SWAP2 SUB SWAP1 REVERT JUMPDEST DUP1 SLOAD PUSH8 0xFFFFFFFFFFFFFFFF TIMESTAMP SWAP1 DUP2 AND PUSH1 0x1 PUSH1 0xA0 SHL MUL PUSH8 0xFFFFFFFFFFFFFFFF PUSH1 0xA0 SHL NOT CALLER SWAP1 DUP2 AND PUSH1 0x1 PUSH1 0x1 PUSH1 0xE0 SHL SUB NOT SWAP1 SWAP5 AND SWAP4 SWAP1 SWAP4 OR OR DUP4 SSTORE PUSH1 0x40 MLOAD DUP5 SWAP2 PUSH32 0x6175B04D68794F2857F394688801D761E647F3149B406EBF2DF387DB91158514 SWAP2 PUSH2 0x303 SWAP2 DUP2 MSTORE PUSH1 0x20 ADD SWAP1 JUMP JUMPDEST PUSH1 0x40 MLOAD DUP1 SWAP2 SUB SWAP1 LOG3 POP POP JUMP JUMPDEST PUSH1 0x40 MLOAD PUSH4 0x877B9A67 PUSH1 0xE0 SHL DUP2 MSTORE CALLER PUSH1 0x4 DUP3 ADD MSTORE PUSH32 0x0 PUSH1 0x1 PUSH1 0x1 PUSH1 0xA0 SHL SUB AND SWAP1 PUSH4 0x877B9A67 SWAP1 PUSH1 0x24 ADD PUSH1 0x20 PUSH1 0x40 MLOAD DUP1 DUP4 SUB DUP2 DUP7 GAS STATICCALL ISZERO DUP1 ISZERO PUSH2 0x373 JUMPI RETURNDATASIZE PUSH1 0x0 DUP1 RETURNDATACOPY RETURNDATASIZE PUSH1 0x0 REVERT JUMPDEST POP POP POP POP PUSH1 0x40 MLOAD RETURNDATASIZE PUSH1 0x1F NOT PUSH1 0x1F DUP3 ADD AND DUP3 ADD DUP1 PUSH1 0x40 MSTORE POP DUP2 ADD SWAP1 PUSH2 0x397 SWAP2 SWAP1 PUSH2 0x4CF JUMP JUMPDEST PUSH2 0x3B4 JUMPI PUSH1 0x40 MLOAD PUSH4 0x6AAF4F1 PUSH1 0xE3 SHL DUP2 MSTORE PUSH1 0x4 ADD PUSH1 0x40 MLOAD DUP1 SWAP2 SUB SWAP1 REVERT JUMPDEST PUSH1 0x0 DUP2 DUP2 MSTORE PUSH1 0x20 DUP2 SWAP1 MSTORE PUSH1 0x40 DUP2 KECCAK256 DUP1 SLOAD SWAP1 SWAP2 PUSH1 0x1 PUSH1 0xA0 SHL SWAP1 SWAP2 DIV PUSH8 0xFFFFFFFFFFFFFFFF AND SWAP1 SUB PUSH2 0x3F7 JUMPI PUSH1 0x40 MLOAD PUSH4 0xC4BA7E5 PUSH1 0xE0 SHL DUP2 MSTORE PUSH1 0x4 ADD PUSH1 0x40 MLOAD DUP1 SWAP2 SUB SWAP1 REVERT JUMPDEST DUP1 SLOAD PUSH1 0x1 PUSH1 0xE0 SHL SWAP1 DIV PUSH1 0xFF AND ISZERO PUSH2 0x421 JUMPI PUSH1 0x40 MLOAD PUSH4 0x905E7107 PUSH1 0xE0 SHL DUP2 MSTORE PUSH1 0x4 ADD PUSH1 0x40 MLOAD DUP1 SWAP2 SUB SWAP1 REVERT JUMPDEST DUP1 SLOAD PUSH1 0x1 PUSH1 0x1 PUSH1 0xA0 SHL SUB AND CALLER EQ PUSH2 0x44B JUMPI PUSH1 0x40 MLOAD PUSH4 0x3C7B0CAF PUSH1 0xE0 SHL DUP2 MSTORE PUSH1 0x4 ADD PUSH1 0x40 MLOAD DUP1 SWAP2 SUB SWAP1 REVERT JUMPDEST DUP1 SLOAD PUSH1 0x1 PUSH1 0xE0 SHL PUSH1 0xFF PUSH1 0xE0 SHL NOT SWAP1 SWAP2 AND OR DUP2 SSTORE PUSH1 0x1 DUP2 ADD DUP1 SLOAD PUSH8 0xFFFFFFFFFFFFFFFF NOT AND TIMESTAMP PUSH8 0xFFFFFFFFFFFFFFFF DUP2 AND SWAP2 SWAP1 SWAP2 OR SWAP1 SWAP2 SSTORE PUSH1 0x40 MLOAD SWAP1 DUP2 MSTORE CALLER SWAP1 DUP4 SWAP1 PUSH32 0x80D4746828447D65ECEB938C7F9D85FBEB232FE7819D5209ED452B3940F8904B SWAP1 PUSH1 0x20 ADD PUSH2 0x303 JUMP JUMPDEST PUSH1 0x0 PUSH1 0x20 DUP3 DUP5 SUB SLT ISZERO PUSH2 0x4C8 JUMPI PUSH1 0x0 DUP1 REVERT JUMPDEST POP CALLDATALOAD SWAP2 SWAP1 POP JUMP JUMPDEST PUSH1 0x0 PUSH1 0x20 DUP3 DUP5 SUB SLT ISZERO PUSH2 0x4E1 JUMPI PUSH1 0x0 DUP1 REVERT JUMPDEST DUP2 MLOAD DUP1 ISZERO ISZERO DUP2 EQ PUSH2 0x4F1 JUMPI PUSH1 0x0 DUP1 REVERT JUMPDEST SWAP4 SWAP3 POP POP POP JUMP INVALID LOG2 PUSH5 0x6970667358 0x22 SLT KECCAK256 0xA8 MSTORE8 EXTCALL DELEGATECALL CODECOPY 0x4D 0x21 SWAP12 AND PUSH1 0xC0 0x4B 0xA5 DUP16 PREVRANDAO DUP16 DIV PUSH8 0x59AC51016E5F0485 0xDF MOD TLOAD 0xA9 BLOCKHASH MSTORE8 PUSH5 0x736F6C6343 STOP ADDMOD 0x1E STOP CALLER "},"methodIdentifiers":{"anchorCredential(bytes32)":"12d49197","getRecord(bytes32)":"213681cd","isRevoked(bytes32)":"4294857f","issuerRegistry()":"8bfc1851","revokeCredential(bytes32)":"ca6eec78"}}}}}