{
  "_format": "hh-sol-artifact-1",
  "contractName": "CredentialRegistry",
  "sourceName": "contracts/CredentialRegistry.sol",
  "abi": [
    {
      "inputs": [
        {
          "internalType": "address",
          "name": "issuerRegistryAddr",
          "type": "address"
        }
      ],
      "stateMutability": "nonpayable",
      "type": "constructor"
    },
    {
      "inputs": [],
      "name": "AlreadyAnchored",
      "type": "error"
    },
    {
      "inputs": [],
      "name": "AlreadyRevoked",
      "type": "error"
    },
    {
      "inputs": [],
      "name": "NotAnchored",
      "type": "error"
    },
    {
      "inputs": [],
      "name": "NotAuthorizedIssuer",
      "type": "error"
    },
    {
      "inputs": [],
      "name": "OnlyOriginalIssuer",
      "type": "error"
    },
    {
      "anonymous": false,
      "inputs": [
        {
          "indexed": true,
          "internalType": "bytes32",
          "name": "vcHash",
          "type": "bytes32"
        },
        {
          "indexed": true,
          "internalType": "address",
          "name": "issuer",
          "type": "address"
        },
        {
          "indexed": false,
          "internalType": "uint256",
          "name": "timestamp",
          "type": "uint256"
        }
      ],
      "name": "CredentialAnchored",
      "type": "event"
    },
    {
      "anonymous": false,
      "inputs": [
        {
          "indexed": true,
          "internalType": "bytes32",
          "name": "vcHash",
          "type": "bytes32"
        },
        {
          "indexed": true,
          "internalType": "address",
          "name": "issuer",
          "type": "address"
        },
        {
          "indexed": false,
          "internalType": "uint256",
          "name": "timestamp",
          "type": "uint256"
        }
      ],
      "name": "CredentialRevoked",
      "type": "event"
    },
    {
      "inputs": [
        {
          "internalType": "bytes32",
          "name": "vcHash",
          "type": "bytes32"
        }
      ],
      "name": "anchorCredential",
      "outputs": [],
      "stateMutability": "nonpayable",
      "type": "function"
    },
    {
      "inputs": [
        {
          "internalType": "bytes32",
          "name": "vcHash",
          "type": "bytes32"
        }
      ],
      "name": "getRecord",
      "outputs": [
        {
          "internalType": "address",
          "name": "issuer",
          "type": "address"
        },
        {
          "internalType": "uint64",
          "name": "issuedAt",
          "type": "uint64"
        },
        {
          "internalType": "bool",
          "name": "revoked",
          "type": "bool"
        },
        {
          "internalType": "uint64",
          "name": "revokedAt",
          "type": "uint64"
        }
      ],
      "stateMutability": "view",
      "type": "function"
    },
    {
      "inputs": [
        {
          "internalType": "bytes32",
          "name": "vcHash",
          "type": "bytes32"
        }
      ],
      "name": "isRevoked",
      "outputs": [
        {
          "internalType": "bool",
          "name": "",
          "type": "bool"
        }
      ],
      "stateMutability": "view",
      "type": "function"
    },
    {
      "inputs": [],
      "name": "issuerRegistry",
      "outputs": [
        {
          "internalType": "contract IIssuerRegistry",
          "name": "",
          "type": "address"
        }
      ],
      "stateMutability": "view",
      "type": "function"
    },
    {
      "inputs": [
        {
          "internalType": "bytes32",
          "name": "vcHash",
          "type": "bytes32"
        }
      ],
      "name": "revokeCredential",
      "outputs": [],
      "stateMutability": "nonpayable",
      "type": "function"
    }
  ],
  "bytecode": "0x60a060405234801561001057600080fd5b5060405161062138038061062183398101604081905261002f9161009a565b6001600160a01b0381166100895760405162461bcd60e51b815260206004820152601760248201527f6973737565725265676973747279207265717569726564000000000000000000604482015260640160405180910390fd5b6001600160a01b03166080526100ca565b6000602082840312156100ac57600080fd5b81516001600160a01b03811681146100c357600080fd5b9392505050565b60805161052e6100f360003960008181610166015281816101c80152610324015261052e6000f3fe608060405234801561001057600080fd5b50600436106100575760003560e01c806312d491971461005c578063213681cd146100715780634294857f146101275780638bfc185114610161578063ca6eec78146101a0575b600080fd5b61006f61006a3660046104b6565b6101b3565b005b6100e861007f3660046104b6565b60009081526020818152604091829020825160808101845281546001600160a01b038116808352600160a01b820467ffffffffffffffff908116958401869052600160e01b90920460ff1615159583018690526001909301541660609091018190529093919291565b604080516001600160a01b03909516855267ffffffffffffffff9384166020860152911515918401919091521660608201526080015b60405180910390f35b6101516101353660046104b6565b600090815260208190526040902054600160e01b900460ff1690565b604051901515815260200161011e565b6101887f000000000000000000000000000000000000000000000000000000000000000081565b6040516001600160a01b03909116815260200161011e565b61006f6101ae3660046104b6565b61030f565b60405163877b9a6760e01b81523360048201527f00000000000000000000000000000000000000000000000000000000000000006001600160a01b03169063877b9a6790602401602060405180830381865afa158015610217573d6000803e3d6000fd5b505050506040513d601f19601f8201168201806040525081019061023b91906104cf565b610258576040516306aaf4f160e31b815260040160405180910390fd5b60008181526020819052604090208054600160a01b900467ffffffffffffffff16156102975760405163a0094ce360e01b815260040160405180910390fd5b805467ffffffffffffffff42908116600160a01b0267ffffffffffffffff60a01b19339081166001600160e01b03199094169390931717835560405184917f6175b04d68794f2857f394688801d761e647f3149b406ebf2df387db911585149161030391815260200190565b60405180910390a35050565b60405163877b9a6760e01b81523360048201527f00000000000000000000000000000000000000000000000000000000000000006001600160a01b03169063877b9a6790602401602060405180830381865afa158015610373573d6000803e3d6000fd5b505050506040513d601f19601f8201168201806040525081019061039791906104cf565b6103b4576040516306aaf4f160e31b815260040160405180910390fd5b600081815260208190526040812080549091600160a01b90910467ffffffffffffffff1690036103f757604051630c4ba7e560e01b815260040160405180910390fd5b8054600160e01b900460ff16156104215760405163905e710760e01b815260040160405180910390fd5b80546001600160a01b0316331461044b57604051633c7b0caf60e01b815260040160405180910390fd5b8054600160e01b60ff60e01b1990911617815560018101805467ffffffffffffffff19164267ffffffffffffffff811691909117909155604051908152339083907f80d4746828447d65eceb938c7f9d85fbeb232fe7819d5209ed452b3940f8904b90602001610303565b6000602082840312156104c857600080fd5b5035919050565b6000602082840312156104e157600080fd5b815180151581146104f157600080fd5b939250505056fea2646970667358221220eb8d9e4cf8278fabf601ccafec5de7449bbb72ce7051309cea9f50eacbe0352564736f6c634300081e0033",
  "linkReferences": {},
  "deployedLinkReferences": {}
}