{
  "_format": "hh-sol-artifact-1",
  "contractName": "DIDRegistry",
  "sourceName": "contracts/DIDRegistry.sol",
  "abi": [
    {
      "inputs": [
        {
          "internalType": "address",
          "name": "issuerRegistryAddr",
          "type": "address"
        }
      ],
      "stateMutability": "nonpayable",
      "type": "constructor"
    },
    {
      "anonymous": false,
      "inputs": [
        {
          "indexed": true,
          "internalType": "address",
          "name": "owner",
          "type": "address"
        },
        {
          "indexed": false,
          "internalType": "string",
          "name": "didURI",
          "type": "string"
        }
      ],
      "name": "DIDRegistered",
      "type": "event"
    },
    {
      "anonymous": false,
      "inputs": [
        {
          "indexed": true,
          "internalType": "address",
          "name": "owner",
          "type": "address"
        },
        {
          "indexed": false,
          "internalType": "string",
          "name": "lastDidURI",
          "type": "string"
        },
        {
          "indexed": false,
          "internalType": "string",
          "name": "revokedBy",
          "type": "string"
        },
        {
          "indexed": false,
          "internalType": "string",
          "name": "reason",
          "type": "string"
        }
      ],
      "name": "DIDRevoked",
      "type": "event"
    },
    {
      "anonymous": false,
      "inputs": [
        {
          "indexed": true,
          "internalType": "address",
          "name": "owner",
          "type": "address"
        },
        {
          "indexed": false,
          "internalType": "string",
          "name": "oldDidURI",
          "type": "string"
        },
        {
          "indexed": false,
          "internalType": "string",
          "name": "newDidURI",
          "type": "string"
        }
      ],
      "name": "DIDUpdated",
      "type": "event"
    },
    {
      "inputs": [
        {
          "internalType": "address",
          "name": "owner",
          "type": "address"
        }
      ],
      "name": "getDID",
      "outputs": [
        {
          "internalType": "string",
          "name": "",
          "type": "string"
        }
      ],
      "stateMutability": "view",
      "type": "function"
    },
    {
      "inputs": [],
      "name": "issuerRegistry",
      "outputs": [
        {
          "internalType": "contract IssuerRegistry",
          "name": "",
          "type": "address"
        }
      ],
      "stateMutability": "view",
      "type": "function"
    },
    {
      "inputs": [
        {
          "internalType": "address",
          "name": "user",
          "type": "address"
        },
        {
          "internalType": "enum DIDRegistry.RevokeReason",
          "name": "reason",
          "type": "uint8"
        }
      ],
      "name": "issuerRevokeDID",
      "outputs": [],
      "stateMutability": "nonpayable",
      "type": "function"
    },
    {
      "inputs": [
        {
          "internalType": "address",
          "name": "user",
          "type": "address"
        },
        {
          "internalType": "string",
          "name": "_didURI",
          "type": "string"
        }
      ],
      "name": "registerDID",
      "outputs": [],
      "stateMutability": "nonpayable",
      "type": "function"
    },
    {
      "inputs": [],
      "name": "revokeDID",
      "outputs": [],
      "stateMutability": "nonpayable",
      "type": "function"
    }
  ],
  "bytecode": "0x6080604052348015600f57600080fd5b50604051610c68380380610c68833981016040819052602c916050565b600180546001600160a01b0319166001600160a01b0392909216919091179055607e565b600060208284031215606157600080fd5b81516001600160a01b0381168114607757600080fd5b9392505050565b610bdb8061008d6000396000f3fe608060405234801561001057600080fd5b50600436106100575760003560e01c80634c98d9c71461005c57806374d1bd97146100715780638bfc1851146100845780639790874c146100b4578063f64e30b0146100bc575b600080fd5b61006f61006a36600461079e565b6100dc565b005b61006f61007f3660046107d9565b6103ba565b600154610097906001600160a01b031681565b6040516001600160a01b0390911681526020015b60405180910390f35b61006f610550565b6100cf6100ca36600461085e565b610680565b6040516100ab91906108c6565b60015460405163877b9a6760e01b81523360048201526001600160a01b039091169063877b9a6790602401602060405180830381865afa158015610124573d6000803e3d6000fd5b505050506040513d601f19601f8201168201806040525081019061014891906108d9565b6101995760405162461bcd60e51b815260206004820152601860248201527f4e6f7420616e20617574686f726973656420697373756572000000000000000060448201526064015b60405180910390fd5b6001600160a01b038216600090815260208190526040812080546101bc906108fb565b80601f01602080910402602001604051908101604052809291908181526020018280546101e8906108fb565b80156102355780601f1061020a57610100808354040283529160200191610235565b820191906000526020600020905b81548152906001019060200180831161021857829003601f168201915b5050505050905080516000036102865760405162461bcd60e51b8152602060048201526016602482015275102737902224a2103337bab732103337b9103ab9b2b960511b6044820152606401610190565b6001600160a01b03831660009081526020819052604081206102a79161072c565b606060008360028111156102bd576102bd610935565b036102ed575060408051808201909152600e81526d119c985d590819195d1958dd195960921b6020820152610371565b600183600281111561030157610301610935565b0361032d575060408051808201909152600a815269125108115e1c1a5c995960b21b6020820152610371565b600283600281111561034157610341610935565b036103715750604080518082019091526012815271149959dd5b185d1bdc9e481c995c5d595cdd60721b60208201525b836001600160a01b03167fd90aac56856399f9c2b0639ff169f059fe44045280003a0765e341297e03e7b283836040516103ac92919061094b565b60405180910390a250505050565b806103fa5760405162461bcd60e51b815260206004820152601060248201526f11125108155492481c995c5d5a5c995960821b6044820152606401610190565b6001600160a01b0383166000908152602081905260408120805461041d906108fb565b80601f0160208091040260200160405190810160405280929190818152602001828054610449906108fb565b80156104965780601f1061046b57610100808354040283529160200191610496565b820191906000526020600020905b81548152906001019060200180831161047957829003601f168201915b50503360009081526020819052604090209394506104bb9250859150869050836109ff565b50805160000361050d57836001600160a01b03167fbfab59a7af78dfc896c3096604749fcee2db2e850297de42de5e6369f54bd3fb8484604051610500929190610ae8565b60405180910390a261054a565b336001600160a01b03167f8a349d0aaf30faae66d032977cc9409a8d7676460eabf8c0947986b5d8a48d8c8285856040516103ac93929190610b04565b50505050565b336000908152602081905260408120805461056a906108fb565b80601f0160208091040260200160405190810160405280929190818152602001828054610596906108fb565b80156105e35780601f106105b8576101008083540402835291602001916105e3565b820191906000526020600020905b8154815290600101906020018083116105c657829003601f168201915b5050505050905080516000036106245760405162461bcd60e51b8152602060048201526006602482015265139bc811125160d21b6044820152606401610190565b33600090815260208190526040812061063c9161072c565b336001600160a01b03167fd90aac56856399f9c2b0639ff169f059fe44045280003a0765e341297e03e7b2826040516106759190610b34565b60405180910390a250565b6001600160a01b03811660009081526020819052604090208054606091906106a7906108fb565b80601f01602080910402602001604051908101604052809291908181526020018280546106d3906108fb565b80156107205780601f106106f557610100808354040283529160200191610720565b820191906000526020600020905b81548152906001019060200180831161070357829003601f168201915b50505050509050919050565b508054610738906108fb565b6000825580601f10610748575050565b601f0160209004906000526020600020908101906107669190610769565b50565b5b8082111561077e576000815560010161076a565b5090565b80356001600160a01b038116811461079957600080fd5b919050565b600080604083850312156107b157600080fd5b6107ba83610782565b91506020830135600381106107ce57600080fd5b809150509250929050565b6000806000604084860312156107ee57600080fd5b6107f784610782565b9250602084013567ffffffffffffffff81111561081357600080fd5b8401601f8101861361082457600080fd5b803567ffffffffffffffff81111561083b57600080fd5b86602082840101111561084d57600080fd5b939660209190910195509293505050565b60006020828403121561087057600080fd5b61087982610782565b9392505050565b6000815180845260005b818110156108a65760208185018101518683018201520161088a565b506000602082860101526020601f19601f83011685010191505092915050565b6020815260006108796020830184610880565b6000602082840312156108eb57600080fd5b8151801515811461087957600080fd5b600181811c9082168061090f57607f821691505b60208210810361092f57634e487b7160e01b600052602260045260246000fd5b50919050565b634e487b7160e01b600052602160045260246000fd5b60608152600061095e6060830185610880565b828103806020850152600682526524b9b9bab2b960d11b6020830152604081016040850152506109916040820185610880565b95945050505050565b634e487b7160e01b600052604160045260246000fd5b601f8211156109fa57806000526020600020601f840160051c810160208510156109d75750805b601f840160051c820191505b818110156109f757600081556001016109e3565b50505b505050565b67ffffffffffffffff831115610a1757610a1761099a565b610a2b83610a2583546108fb565b836109b0565b6000601f841160018114610a5f5760008515610a475750838201355b600019600387901b1c1916600186901b1783556109f7565b600083815260209020601f19861690835b82811015610a905786850135825560209485019460019092019101610a70565b5086821015610aad5760001960f88860031b161c19848701351681555b505060018560011b0183555050505050565b81835281816020850137506000828201602090810191909152601f909101601f19169091010190565b602081526000610afc602083018486610abf565b949350505050565b604081526000610b176040830186610880565b8281036020840152610b2a818587610abf565b9695505050505050565b606081526000610b476060830184610880565b82810380602085015260048252632ab9b2b960e11b602083015260408101604085015250601960408201527f5573657220726571756573746564207265766f636174696f6e000000000000006060820152608081019150509291505056fea2646970667358221220b1dbef295cf955a64652e0405a505eee9717389ee46ca2cdb840a4463ca3a3f364736f6c634300081e0033",
  "linkReferences": {},
  "deployedLinkReferences": {}
}