{
  "_format": "hh-sol-artifact-1",
  "contractName": "DIDRegistry",
  "sourceName": "contracts/DIDRegistry.sol",
  "abi": [
    {
      "inputs": [
        {
          "internalType": "address",
          "name": "issuerRegistryAddr",
          "type": "address"
        }
      ],
      "stateMutability": "nonpayable",
      "type": "constructor"
    },
    {
      "anonymous": false,
      "inputs": [
        {
          "indexed": true,
          "internalType": "address",
          "name": "owner",
          "type": "address"
        },
        {
          "indexed": false,
          "internalType": "string",
          "name": "didURI",
          "type": "string"
        }
      ],
      "name": "DIDRegistered",
      "type": "event"
    },
    {
      "anonymous": false,
      "inputs": [
        {
          "indexed": true,
          "internalType": "address",
          "name": "owner",
          "type": "address"
        },
        {
          "indexed": false,
          "internalType": "string",
          "name": "lastDidURI",
          "type": "string"
        },
        {
          "indexed": false,
          "internalType": "string",
          "name": "revokedBy",
          "type": "string"
        },
        {
          "indexed": false,
          "internalType": "string",
          "name": "reason",
          "type": "string"
        }
      ],
      "name": "DIDRevoked",
      "type": "event"
    },
    {
      "anonymous": false,
      "inputs": [
        {
          "indexed": true,
          "internalType": "address",
          "name": "owner",
          "type": "address"
        },
        {
          "indexed": false,
          "internalType": "string",
          "name": "oldDidURI",
          "type": "string"
        },
        {
          "indexed": false,
          "internalType": "string",
          "name": "newDidURI",
          "type": "string"
        }
      ],
      "name": "DIDUpdated",
      "type": "event"
    },
    {
      "inputs": [
        {
          "internalType": "address",
          "name": "owner",
          "type": "address"
        }
      ],
      "name": "getDID",
      "outputs": [
        {
          "internalType": "string",
          "name": "",
          "type": "string"
        }
      ],
      "stateMutability": "view",
      "type": "function"
    },
    {
      "inputs": [],
      "name": "issuerRegistry",
      "outputs": [
        {
          "internalType": "contract IssuerRegistry",
          "name": "",
          "type": "address"
        }
      ],
      "stateMutability": "view",
      "type": "function"
    },
    {
      "inputs": [
        {
          "internalType": "address",
          "name": "user",
          "type": "address"
        },
        {
          "internalType": "enum DIDRegistry.RevokeReason",
          "name": "reason",
          "type": "uint8"
        }
      ],
      "name": "issuerRevokeDID",
      "outputs": [],
      "stateMutability": "nonpayable",
      "type": "function"
    },
    {
      "inputs": [
        {
          "internalType": "address",
          "name": "user",
          "type": "address"
        },
        {
          "internalType": "string",
          "name": "_didURI",
          "type": "string"
        }
      ],
      "name": "registerDID",
      "outputs": [],
      "stateMutability": "nonpayable",
      "type": "function"
    },
    {
      "inputs": [],
      "name": "revokeDID",
      "outputs": [],
      "stateMutability": "nonpayable",
      "type": "function"
    }
  ],
  "bytecode": "0x6080604052348015600f57600080fd5b50604051610c6f380380610c6f833981016040819052602c916050565b600180546001600160a01b0319166001600160a01b0392909216919091179055607e565b600060208284031215606157600080fd5b81516001600160a01b0381168114607757600080fd5b9392505050565b610be28061008d6000396000f3fe608060405234801561001057600080fd5b50600436106100575760003560e01c80634c98d9c71461005c57806374d1bd97146100715780638bfc1851146100845780639790874c146100b4578063f64e30b0146100bc575b600080fd5b61006f61006a3660046107a5565b6100dc565b005b61006f61007f3660046107e0565b6103ba565b600154610097906001600160a01b031681565b6040516001600160a01b0390911681526020015b60405180910390f35b61006f610557565b6100cf6100ca366004610865565b610687565b6040516100ab91906108cd565b60015460405163877b9a6760e01b81523360048201526001600160a01b039091169063877b9a6790602401602060405180830381865afa158015610124573d6000803e3d6000fd5b505050506040513d601f19601f8201168201806040525081019061014891906108e0565b6101995760405162461bcd60e51b815260206004820152601860248201527f4e6f7420616e20617574686f726973656420697373756572000000000000000060448201526064015b60405180910390fd5b6001600160a01b038216600090815260208190526040812080546101bc90610902565b80601f01602080910402602001604051908101604052809291908181526020018280546101e890610902565b80156102355780601f1061020a57610100808354040283529160200191610235565b820191906000526020600020905b81548152906001019060200180831161021857829003601f168201915b5050505050905080516000036102865760405162461bcd60e51b8152602060048201526016602482015275102737902224a2103337bab732103337b9103ab9b2b960511b6044820152606401610190565b6001600160a01b03831660009081526020819052604081206102a791610733565b606060008360028111156102bd576102bd61093c565b036102ed575060408051808201909152600e81526d119c985d590819195d1958dd195960921b6020820152610371565b60018360028111156103015761030161093c565b0361032d575060408051808201909152600a815269125108115e1c1a5c995960b21b6020820152610371565b60028360028111156103415761034161093c565b036103715750604080518082019091526012815271149959dd5b185d1bdc9e481c995c5d595cdd60721b60208201525b836001600160a01b03167fd90aac56856399f9c2b0639ff169f059fe44045280003a0765e341297e03e7b283836040516103ac929190610952565b60405180910390a250505050565b806103fa5760405162461bcd60e51b815260206004820152601060248201526f11125108155492481c995c5d5a5c995960821b6044820152606401610190565b6001600160a01b0383166000908152602081905260408120805461041d90610902565b80601f016020809104026020016040519081016040528092919081815260200182805461044990610902565b80156104965780601f1061046b57610100808354040283529160200191610496565b820191906000526020600020905b81548152906001019060200180831161047957829003601f168201915b505050506001600160a01b03861660009081526020819052604090209192506104c29050838583610a06565b50805160000361051457836001600160a01b03167fbfab59a7af78dfc896c3096604749fcee2db2e850297de42de5e6369f54bd3fb8484604051610507929190610aef565b60405180910390a2610551565b836001600160a01b03167f8a349d0aaf30faae66d032977cc9409a8d7676460eabf8c0947986b5d8a48d8c8285856040516103ac93929190610b0b565b50505050565b336000908152602081905260408120805461057190610902565b80601f016020809104026020016040519081016040528092919081815260200182805461059d90610902565b80156105ea5780601f106105bf576101008083540402835291602001916105ea565b820191906000526020600020905b8154815290600101906020018083116105cd57829003601f168201915b50505050509050805160000361062b5760405162461bcd60e51b8152602060048201526006602482015265139bc811125160d21b6044820152606401610190565b33600090815260208190526040812061064391610733565b336001600160a01b03167fd90aac56856399f9c2b0639ff169f059fe44045280003a0765e341297e03e7b28260405161067c9190610b3b565b60405180910390a250565b6001600160a01b03811660009081526020819052604090208054606091906106ae90610902565b80601f01602080910402602001604051908101604052809291908181526020018280546106da90610902565b80156107275780601f106106fc57610100808354040283529160200191610727565b820191906000526020600020905b81548152906001019060200180831161070a57829003601f168201915b50505050509050919050565b50805461073f90610902565b6000825580601f1061074f575050565b601f01602090049060005260206000209081019061076d9190610770565b50565b5b808211156107855760008155600101610771565b5090565b80356001600160a01b03811681146107a057600080fd5b919050565b600080604083850312156107b857600080fd5b6107c183610789565b91506020830135600381106107d557600080fd5b809150509250929050565b6000806000604084860312156107f557600080fd5b6107fe84610789565b9250602084013567ffffffffffffffff81111561081a57600080fd5b8401601f8101861361082b57600080fd5b803567ffffffffffffffff81111561084257600080fd5b86602082840101111561085457600080fd5b939660209190910195509293505050565b60006020828403121561087757600080fd5b61088082610789565b9392505050565b6000815180845260005b818110156108ad57602081850181015186830182015201610891565b506000602082860101526020601f19601f83011685010191505092915050565b6020815260006108806020830184610887565b6000602082840312156108f257600080fd5b8151801515811461088057600080fd5b600181811c9082168061091657607f821691505b60208210810361093657634e487b7160e01b600052602260045260246000fd5b50919050565b634e487b7160e01b600052602160045260246000fd5b6060815260006109656060830185610887565b828103806020850152600682526524b9b9bab2b960d11b6020830152604081016040850152506109986040820185610887565b95945050505050565b634e487b7160e01b600052604160045260246000fd5b601f821115610a0157806000526020600020601f840160051c810160208510156109de5750805b601f840160051c820191505b818110156109fe57600081556001016109ea565b50505b505050565b67ffffffffffffffff831115610a1e57610a1e6109a1565b610a3283610a2c8354610902565b836109b7565b6000601f841160018114610a665760008515610a4e5750838201355b600019600387901b1c1916600186901b1783556109fe565b600083815260209020601f19861690835b82811015610a975786850135825560209485019460019092019101610a77565b5086821015610ab45760001960f88860031b161c19848701351681555b505060018560011b0183555050505050565b81835281816020850137506000828201602090810191909152601f909101601f19169091010190565b602081526000610b03602083018486610ac6565b949350505050565b604081526000610b1e6040830186610887565b8281036020840152610b31818587610ac6565b9695505050505050565b606081526000610b4e6060830184610887565b82810380602085015260048252632ab9b2b960e11b602083015260408101604085015250601960408201527f5573657220726571756573746564207265766f636174696f6e000000000000006060820152608081019150509291505056fea26469706673582212207bdfdf0080a4fd27cccb600c3530df116de72a36df2b30aac5f10c5135bd6bd964736f6c634300081e0033",
  "linkReferences": {},
  "deployedLinkReferences": {}
}